{
  "transactions": [
    {
      "hash": "0xad6385730ef8ee18e104bca83df49ee9f7825f193868c56c695abcb6c994b9b3",
      "transactionType": "CALL",
      "contractName": "MyToken",
      "contractAddress": "0x46a797c81379d77bbed8ea4bdbf1ce62557e03fb",
      "function": "transfer(address,uint256)",
      "arguments": [
        "0x40C8e86802624bBcC5C4feFE49145c5C9843ffDe",
        "100000000000000000000"
      ],
      "transaction": {
        "from": "0x68908bc19fec2ee94347eccf4f80f405d728b7e8",
        "to": "0x46a797c81379d77bbed8ea4bdbf1ce62557e03fb",
        "gas": "0x115bf",
        "value": "0x0",
        "input": "0xa9059cbb00000000000000000000000040c8e86802624bbcc5c4fefe49145c5c9843ffde0000000000000000000000000000000000000000000000056bc75e2d63100000",
        "nonce": "0x3",
        "chainId": "0x96",
        "accessList": null,
        "type": null
      },
      "additionalContracts": [],
      "isFixedGasLimit": false
    }
  ],
  "receipts": [
    {
      "status": "0x1",
      "cumulativeGasUsed": "0xc916",
      "logs": [
        {
          "address": "0x46a797c81379d77bbed8ea4bdbf1ce62557e03fb",
          "topics": [
            "0xddf252ad1be2c89b69c2b068fc378daa952ba7f163c4a11628f55a4df523b3ef",
            "0x00000000000000000000000068908bc19fec2ee94347eccf4f80f405d728b7e8",
            "0x00000000000000000000000040c8e86802624bbcc5c4fefe49145c5c9843ffde"
          ],
          "data": "0x0000000000000000000000000000000000000000000000056bc75e2d63100000",
          "blockHash": "0xc244b839b7941bd936c620c9a6c0ee0e118ea7ad5bee84a05ae381caeee45ddf",
          "blockNumber": "0x7c3adc",
          "transactionHash": "0xad6385730ef8ee18e104bca83df49ee9f7825f193868c56c695abcb6c994b9b3",
          "transactionIndex": "0x0",
          "logIndex": "0x0",
          "removed": false
        }
      ],
      "logsBloom": "0x00000000000000000000000000000000000000000000000000000000000000000000000000000000000000000000000030000000000000000000000000040000000000000000000000000008000000000000000000000000000000000000000000000000000000000000000000000040000000000000000000000010100000000000000000000000000000000000000000000000800000000000000000000000000000200000000000000000000000000000000000000000000000000000000000000002000000000000000000000000000000000000000000000000000000000000000000000000000000010000000000000000000000000000000000000001",
      "type": "0x2",
      "transactionHash": "0xad6385730ef8ee18e104bca83df49ee9f7825f193868c56c695abcb6c994b9b3",
      "transactionIndex": "0x0",
      "blockHash": "0xc244b839b7941bd936c620c9a6c0ee0e118ea7ad5bee84a05ae381caeee45ddf",
      "blockNumber": "0x7c3adc",
      "gasUsed": "0xc916",
      "effectiveGasPrice": "0x48c27395000",
      "from": "0x68908bc19fec2ee94347eccf4f80f405d728b7e8",
      "to": "0x46a797c81379d77bbed8ea4bdbf1ce62557e03fb",
      "contractAddress": null
    }
  ],
  "libraries": [],
  "pending": [],
  "returns": {},
  "timestamp": 1714068954,
  "chain": 150,
  "commit": "3fb1cba"
}