{
  "transactions": [
    {
      "hash": "0x3c962b4f75947301ad47ef4cd3caccbe074ec3333dbf15be2f203acb88010b8a",
      "transactionType": "CALL",
      "contractName": null,
      "contractAddress": "0xa73687b61edb3c0ea4247ce7f0557e04cb3cde72",
      "function": "transfer(address,uint256)",
      "arguments": [
        "0xD5A2DEA630FF4A999C124ea4c04ad83137860668",
        "100000000000000000000000"
      ],
      "transaction": {
        "from": "0xb62ef83643a2f8c95df78f694c6bf480f5b786f2",
        "to": "0xa73687b61edb3c0ea4247ce7f0557e04cb3cde72",
        "gas": "0x115d5",
        "value": "0x0",
        "input": "0xa9059cbb000000000000000000000000d5a2dea630ff4a999c124ea4c04ad8313786066800000000000000000000000000000000000000000000152d02c7e14af6800000",
        "nonce": "0x83b",
        "chainId": "0x96"
      },
      "additionalContracts": [],
      "isFixedGasLimit": false
    },
    {
      "hash": "0x04c808881c39de9f19058adc017484151766c268680b314d43a2147cda4a9e72",
      "transactionType": "CALL",
      "contractName": null,
      "contractAddress": "0xa73687b61edb3c0ea4247ce7f0557e04cb3cde72",
      "function": "transfer(address,uint256)",
      "arguments": [
        "0xD5A2DEA630FF4A999C124ea4c04ad83137860668",
        "100000000000000000000000"
      ],
      "transaction": {
        "from": "0xb62ef83643a2f8c95df78f694c6bf480f5b786f2",
        "to": "0xa73687b61edb3c0ea4247ce7f0557e04cb3cde72",
        "gas": "0xc47c",
        "value": "0x0",
        "input": "0xa9059cbb000000000000000000000000d5a2dea630ff4a999c124ea4c04ad8313786066800000000000000000000000000000000000000000000152d02c7e14af6800000",
        "nonce": "0x83c",
        "chainId": "0x96"
      },
      "additionalContracts": [],
      "isFixedGasLimit": false
    },
    {
      "hash": "0x34c24c91032716f0d18c9c6075b06a441f03b78ef360f92df2463661d13b0167",
      "transactionType": "CALL",
      "contractName": null,
      "contractAddress": "0xa73687b61edb3c0ea4247ce7f0557e04cb3cde72",
      "function": "transfer(address,uint256)",
      "arguments": [
        "0xD5A2DEA630FF4A999C124ea4c04ad83137860668",
        "100000000000000000000000"
      ],
      "transaction": {
        "from": "0xb62ef83643a2f8c95df78f694c6bf480f5b786f2",
        "to": "0xa73687b61edb3c0ea4247ce7f0557e04cb3cde72",
        "gas": "0xc47c",
        "value": "0x0",
        "input": "0xa9059cbb000000000000000000000000d5a2dea630ff4a999c124ea4c04ad8313786066800000000000000000000000000000000000000000000152d02c7e14af6800000",
        "nonce": "0x83d",
        "chainId": "0x96"
      },
      "additionalContracts": [],
      "isFixedGasLimit": false
    }
  ],
  "receipts": [
    {
      "status": "0x1",
      "cumulativeGasUsed": "0xc926",
      "logs": [
        {
          "address": "0xa73687b61edb3c0ea4247ce7f0557e04cb3cde72",
          "topics": [
            "0xddf252ad1be2c89b69c2b068fc378daa952ba7f163c4a11628f55a4df523b3ef",
            "0x000000000000000000000000b62ef83643a2f8c95df78f694c6bf480f5b786f2",
            "0x000000000000000000000000d5a2dea630ff4a999c124ea4c04ad83137860668"
          ],
          "data": "0x00000000000000000000000000000000000000000000152d02c7e14af6800000",
          "blockHash": "0x41383f8f2e9125b8efc89e10387362c1283121e008ed5b1953019bf08c0858da",
          "blockNumber": "0xa34109",
          "transactionHash": "0x3c962b4f75947301ad47ef4cd3caccbe074ec3333dbf15be2f203acb88010b8a",
          "transactionIndex": "0x0",
          "logIndex": "0x0",
          "removed": false
        }
      ],
      "logsBloom": "0x00000000000000000000000000000000000000000000000000000000000000000000000000000000000000000000000000000000000000000000000000000000000000000000000000000008000000000000000000000000000000800000000400000000000000000000000000000000000000004000010000000010000000000000000000000000000000000000000000000000000004000000000000000000000000000000000000000000000200000000000000000000000000000000000000000002000000000000000000000000000000000000000000000000000080000000000000000000000010000000000000000400000000000000000000000000",
      "type": "0x2",
      "transactionHash": "0x3c962b4f75947301ad47ef4cd3caccbe074ec3333dbf15be2f203acb88010b8a",
      "transactionIndex": "0x0",
      "blockHash": "0x41383f8f2e9125b8efc89e10387362c1283121e008ed5b1953019bf08c0858da",
      "blockNumber": "0xa34109",
      "gasUsed": "0xc926",
      "effectiveGasPrice": "0x48c27395001",
      "from": "0xb62ef83643a2f8c95df78f694c6bf480f5b786f2",
      "to": "0xa73687b61edb3c0ea4247ce7f0557e04cb3cde72",
      "contractAddress": null
    },
    {
      "status": "0x1",
      "cumulativeGasUsed": "0x14f80",
      "logs": [
        {
          "address": "0xa73687b61edb3c0ea4247ce7f0557e04cb3cde72",
          "topics": [
            "0xddf252ad1be2c89b69c2b068fc378daa952ba7f163c4a11628f55a4df523b3ef",
            "0x000000000000000000000000b62ef83643a2f8c95df78f694c6bf480f5b786f2",
            "0x000000000000000000000000d5a2dea630ff4a999c124ea4c04ad83137860668"
          ],
          "data": "0x00000000000000000000000000000000000000000000152d02c7e14af6800000",
          "blockHash": "0x41383f8f2e9125b8efc89e10387362c1283121e008ed5b1953019bf08c0858da",
          "blockNumber": "0xa34109",
          "transactionHash": "0x04c808881c39de9f19058adc017484151766c268680b314d43a2147cda4a9e72",
          "transactionIndex": "0x1",
          "logIndex": "0x1",
          "removed": false
        }
      ],
      "logsBloom": "0x00000000000000000000000000000000000000000000000000000000000000000000000000000000000000000000000000000000000000000000000000000000000000000000000000000008000000000000000000000000000000800000000400000000000000000000000000000000000000004000010000000010000000000000000000000000000000000000000000000000000004000000000000000000000000000000000000000000000200000000000000000000000000000000000000000002000000000000000000000000000000000000000000000000000080000000000000000000000010000000000000000400000000000000000000000000",
      "type": "0x2",
      "transactionHash": "0x04c808881c39de9f19058adc017484151766c268680b314d43a2147cda4a9e72",
      "transactionIndex": "0x1",
      "blockHash": "0x41383f8f2e9125b8efc89e10387362c1283121e008ed5b1953019bf08c0858da",
      "blockNumber": "0xa34109",
      "gasUsed": "0x865a",
      "effectiveGasPrice": "0x48c27395001",
      "from": "0xb62ef83643a2f8c95df78f694c6bf480f5b786f2",
      "to": "0xa73687b61edb3c0ea4247ce7f0557e04cb3cde72",
      "contractAddress": null
    },
    {
      "status": "0x1",
      "cumulativeGasUsed": "0x1d5da",
      "logs": [
        {
          "address": "0xa73687b61edb3c0ea4247ce7f0557e04cb3cde72",
          "topics": [
            "0xddf252ad1be2c89b69c2b068fc378daa952ba7f163c4a11628f55a4df523b3ef",
            "0x000000000000000000000000b62ef83643a2f8c95df78f694c6bf480f5b786f2",
            "0x000000000000000000000000d5a2dea630ff4a999c124ea4c04ad83137860668"
          ],
          "data": "0x00000000000000000000000000000000000000000000152d02c7e14af6800000",
          "blockHash": "0x41383f8f2e9125b8efc89e10387362c1283121e008ed5b1953019bf08c0858da",
          "blockNumber": "0xa34109",
          "transactionHash": "0x34c24c91032716f0d18c9c6075b06a441f03b78ef360f92df2463661d13b0167",
          "transactionIndex": "0x2",
          "logIndex": "0x2",
          "removed": false
        }
      ],
      "logsBloom": "0x00000000000000000000000000000000000000000000000000000000000000000000000000000000000000000000000000000000000000000000000000000000000000000000000000000008000000000000000000000000000000800000000400000000000000000000000000000000000000004000010000000010000000000000000000000000000000000000000000000000000004000000000000000000000000000000000000000000000200000000000000000000000000000000000000000002000000000000000000000000000000000000000000000000000080000000000000000000000010000000000000000400000000000000000000000000",
      "type": "0x2",
      "transactionHash": "0x34c24c91032716f0d18c9c6075b06a441f03b78ef360f92df2463661d13b0167",
      "transactionIndex": "0x2",
      "blockHash": "0x41383f8f2e9125b8efc89e10387362c1283121e008ed5b1953019bf08c0858da",
      "blockNumber": "0xa34109",
      "gasUsed": "0x865a",
      "effectiveGasPrice": "0x48c27395001",
      "from": "0xb62ef83643a2f8c95df78f694c6bf480f5b786f2",
      "to": "0xa73687b61edb3c0ea4247ce7f0557e04cb3cde72",
      "contractAddress": null
    }
  ],
  "libraries": [],
  "pending": [],
  "returns": {},
  "timestamp": 1730368262,
  "chain": 150,
  "commit": "c2a27ce"
}